:020000040800F2
:10000000E05400247103000853280008E12600088A
:1000100051280008A1040008C933000800000000AE
:10002000000000000000000000000000AD02000819
:10003000A30400080000000009030008F12A0008DA
:100040008B0300088B0300088B0300088B03000858
:100050008B0300088B0300088B0300088B03000848
:100060008B0300088B0300088B0300088B03000838
:100070008B0300088B0300088B0300088B03000828
:100080008B0300088B0300088B0300088B03000818
:100090008B0300088B0300088B0300088B03000808
:1000A0008B0300088B0300088B0300088B030008F8
:1000B0008B0300088B0300088B0300088B030008E8
:1000C0008B0300088B0300088B0300088B030008D8
:1000D0008B0300088B0300088B0300088B030008C8
:1000E0008B0300088B030008000000008B0300084E
:1000F0008B0300088B0300088B0300088B030008A8
:100100008B0300088B0300088B0300088B03000897
:100110008B0300088B030008A12C00088B03000848
:100120008B0300088B0300088B0300088B03000877
:100130008B0300088B0300088B0300088B03000867
:1001400000000000000000000000000000000000AF
:100150008B0300088B0300088B0300088B03000847
:100160008B0300088B0300088B0300088B03000837
:100170008B0300088B0300088B03000800000000BD
:100180008B0300088B0300088B0300088B03000817
:100190008B0300088B0300088B0300088B03000807
:1001A0008B0300088B0300088B0300088B030008F7
:1001B0008B0300088B0300088B0300088B030008E7
:1001C0008B0300088B0300088B0300088B030008D7
:1001D0008B0300088B0300088B0300088B030008C7
:1001E0008B0300088B0300088B0300088B030008B7
:1001F0008B0300088B0300088B0300088B030008A7
:100200008B0300088B0300088B0300088B03000896
:100210008B0300088B0300088B0300088B03000886
:100220008B0300088B0300088B030008000000000C
:100230008B0300088B030008000000008B030008FC
:100240008B0300088B0300088B0300088B03000856
:100250008B0300088B0300088B0300088B03000846
:100260008B0300088B0300088B0300088B03000836
:100270008B0300088B0300088B03000800000000BC
:100280008B0300088B0300088B03000800000000AC
:10029000000000008B030008DFF80CD000F0EEF83F
:1002A000004800478D340008E05400242D4B1968A5
:1002B0000868B0E8F04F80F30988BFF36F8F4FF004
:1002C000000080F3118870470000000008480068B3
:1002D000006880F308884FF0000080F3148862B64D
:1002E00061B6BFF34F8FBFF36F8F00DF00BF00BF5A
:1002F00008ED00E0DFF80C00016841F470010160D6
:10030000704700BF88ED00E0EFF30980BFF36F8F07
:10031000144B1A681EF0100F08BF20ED108A20E958
:10032000F04F106009B44FF0500072B680F311889E
:10033000BFF34F8FBFF36F8F62B603F07DFF4FF0B7
:10034000000080F3118809BC19680868B0E8F04F14
:100350001EF0100F08BFB0EC108A80F30988BFF3BD
:100360006F8F704714000024EFF305807047000082
:100370000648804706480047FEE7FEE7FEE7FEE73F
:10038000FEE7FEE7FEE7FEE7FEE7FEE7C52B000817
:10039000990200082DE9F05F0546002092469B4631
:1003A00088460646814640241BE02846414647468B
:1003B000224600F053F853465A46C01A914110D3D2
:1003C00011461846224600F03AF82D1A67EB01084C
:1003D0004F4622460120002100F031F817EB0009BA
:1003E0004E41201EA4F10104DFDC484631462A4676
:1003F0004346BDE8F09F40EA01039B0703D009E0B4
:1004000008C9121F08C0042AFAD203E011F8013B00
:1004100000F8013B521EF9D27047D2B201E000F859
:10042000012B491EFBD270470022F6E710B5134698
:100430000A4604461946FFF7F0FF204610BD202A61
:1004400004DB203A00FA02F1002070479140C2F12B
:10045000200320FA03F3194390407047202A04DB5D
:10046000203A21FA02F00021704721FA02F3D0402D
:10047000C2F120029140084319467047064C074DCF
:1004800006E0E06840F0010394E807009847103464
:10049000AC42F6D3FFF704FF584B0008784B000836
:1004A000FEE7704772B6FEE770B5044600F038F913
:1004B0000546601C02D004480078044400F030F97E
:1004C000401BA042FAD370BD000000242DE9F84F74
:1004D00003247D4D00234FF001094FF0B04B4FF046
:1004E0000F0AE9E009FA03F73A4076D00E7906F0F0
:1004F0000306012E01D0022E18D1D0F808C04FEA11
:10050000430ECE6804FA0EF82CEA080C06FA0EF632
:1005100046EA0C068660D0F804C00E792CEA070C77
:10052000C6F300169E4046EA0C0646600E79F64376
:10053000B6070BD0C6684FEA43088F6804FA08FC78
:1005400026EA0C0607FA08F73743C7600E7906F06B
:100550000306022E12D1DE080F694FEA437C00EB3E
:100560008606B646366A4FEADC6C0AFA0CF807FAD9
:100570000CF726EA08063743CEF820700F79066894
:100580004FEA430807F0030704FA08FC07FA08F7E4
:1005900026EA0C06374307604E6816F4403F1CD02D
:1005A0004A4E376847F00207376036689F0706F003
:1005B0000206009623F0030606F1B046B6463F0F4A
:1005C000D6F80864DFF808810AFA07FC404526EAF5
:1005D0000C0603D14FF0000C41E06CE0DFF8F4C0F2
:1005E000604502D14FF0010C39E0DFF8ECC0604506
:1005F00002D14FF0020C32E0DFF8E0C0604502D1DA
:100600004FF0030C2BE0DFF8D8C0604502D14FF06B
:10061000040C24E0DFF8CCC0604502D14FF0050C9B
:100620001DE0DFF8C4C0604502D14FF0060C16E0B3
:10063000DFF8B8C0604502D14FF0070C0FE0DFF8DB
:10064000B0C0604502D14FF0080C08E0DFF8A4C04C
:10065000604502D14FF0090C01E04FF00A0C0CFA92
:1006600007FC4CEA060CCEF808C44F68DBF80060C3
:10067000FF0226EA020600D516435F46CBF800606B
:10068000D1F804C0DBF804605FEA8C2C26EA02068D
:1006900000D516437E606E684F6826EA0206BF03E7
:1006A00000D516436E602E684F6826EA0206FF03E7
:1006B00000D516432E605B1C0A6832FA03F67FF4FD
:1006C00011AFBDE8F88F000080000058F4440258D4
:1006D000000002580004025800080258000C02589A
:1006E000001002580014025800180258001C02584A
:1006F0000020025800240258426921EA02030A40FD
:1007000043EA0241816170470AB18161704709047F
:10071000FBE7000001480068000C70470010005C17
:10072000014880687047000000000024024881688A
:10073000027811448160704700000024032010B546
:1007400000F0FAF801F002F90F4A10491468136832
:10075000C4F3032203F00F038A5CC95C02F01F029A
:1007600001F01F01D0400A4A20FA01F11160094945
:100770000860012000F010F808B1012010BD00F061
:100780009FF8002010BD000018440258484B000894
:10079000100000240C00002410B5102804468AB074
:1007A0002CD200220146362000F0A6F8362000F0B8
:1007B00095F8174804601748016841F0100101607E
:1007C000006809A900F010000890684601F04AF896
:1007D0000598B0B101F096F840000F4900220F4C87
:1007E000B0FBF1F10E4840F2E7330460C0E9033298
:1007F000491EC0E9011201F00AFD28B101200AB02A
:1008000010BD01F07FF8E8E7054801F033FDF6E799
:1008100004000024E844025840420F000010004049
:10082000BC010024154BF0B5083B427813491A600F
:100830000B680A1F23F001030B6043681360057BFC
:10084000C67A827A437B2D07847B45EA0665C77B9F
:1008500090F809C0067A90F800E045EAC24040EA04
:10086000834040EA444040EA074040EA0C2040EA26
:10087000460040EA0E000860F0BD0000A0ED00E078
:10088000BFF35F8F044800210368034A23F48033D9
:10089000036070321160704724ED00E0074A40F0B9
:1008A0000100064970321060086840F4803008602A
:1008B000BFF34F8FBFF36F8F7047000024ED00E050
:1008C000054808B5016841F002010160006800F0C8
:1008D0000200009008BD0000F4440258002809DB23
:1008E000410900F01F028900012001F1E021904040
:1008F000C1F80001704700000E4BF0B41B680D46B4
:10090000C3F30223C3F10706042E00D90426191DE0
:10091000072901D2002300E0DB1E012404FA06F1BE
:100920009C40491E2940641E994014402143F0BC5C
:1009300002F054BD0CED00E0064900F0070210B5CE
:100940004FF6FF040868044B204040EA0220184399
:10095000086010BD0CED00E00000FA05134970B509
:100960000A68D243520705D5096801F007018142A0
:1009700013D118E00A6822F0070202430A60FFF769
:10098000CFFE0A4D4FF47A760446083D07E000BFDB
:10099000FFF7C6FE001BB04201D9012070BD2868D8
:1009A000C0438004F4D4002070BD00000C480258FD
:1009B00010B500F085FF05490968054AC1F3021129
:1009C000515C01F01F01C84010BD000020440258D6
:1009D000484B0008494930B5484C0B1D0A6814348F
:1009E00009681D68246802F00303C5F30012C1F30F
:1009F0000531C4F3CC04002914FB02F200EE102AE6
:100A0000F8EE400A75D03F4A9FED3D1AB7EE000A56
:100A10006BB1DFED3D1A012B01D0022B64D002EE49
:100A2000101A1168F8EE422A81EEA22A21E0334C16
:100A3000283C23689B0612D5344B246801EE901A9B
:100A40001168C4F3C104F8EE612AE34001EE903A64
:100A5000C1F30801F8EE611A81EEA22A0BE001EE63
:100A6000901ADFED2B2A00BFF8EE611A116882EEB2
:100A7000A12AC1F3080101EE901A1168F8EE611A7B
:100A800040EE811A71EE800A62EE200AC1F346211F
:100A900001EE101AB8EE411A31EE001AC0EE811ABA
:100AA000BCEEE11A80ED001A1168C1F3064101EEB7
:100AB000101AB8EE411A31EE001AC0EE811ABCEEDF
:100AC000E11A80ED011A1168C1F3066101EE101AF6
:100AD000B8EE411A31EE000A80EE801ABCEEC10A6F
:100AE00080ED020A30BD04E001EE901ADFED092A24
:100AF000BAE70021016041608160F3E728440258B1
:100B000000000039384402580024744A0090D00391
:100B10000024744C20BCBE4B494930B5484C0B1DD9
:100B20000A681C3409681D68246802F00303C5F3D1
:100B30000022C1F30551C4F3CC04002914FB02F2D6
:100B400000EE102AF8EE400A75D03F4A9FED3D1A9C
:100B5000B7EE000A6BB1DFED3D1A012B01D0022B7D
:100B600064D002EE101A1168F8EE422A81EEA22A31
:100B700021E0334C283C23689B0612D5344B246873
:100B800001EE901A1168C4F3C104F8EE612AE34043
:100B900001EE903AC1F30801F8EE611A81EEA22A43
:100BA0000BE001EE901ADFED2B2A00BFF8EE611A80
:100BB000116882EEA12AC1F3080101EE901A1168B2
:100BC000F8EE611A40EE811A71EE800A62EE200A98
:100BD000C1F3462101EE101AB8EE411A31EE001AA7
:100BE000C0EE811ABCEEE11A80ED001A1168C1F363
:100BF000064101EE101AB8EE411A31EE001AC0EEAD
:100C0000811ABCEEE11A80ED011A1168C1F3066188
:100C100001EE101AB8EE411A31EE000A80EE801A89
:100C2000BCEEC10A80ED020A30BD04E001EE901A6C
:100C3000DFED092ABAE70021016041608160F3E736
:100C40002844025800000039404402580024744AE5
:100C50000090D0030024744C20BCBE4B2DE9FE4F05
:100C60000546DFF8E48350F8081B0024F64FC9431B
:100C7000019005F12800264608F12408009008019B
:100C80001DD4A86E50B1B0F5801F0CD0B0F5001F78
:100C90000ED0B0F5401F1ED001240FE0386840F49C
:100CA0000030386017E00198022101F0D3FD03E025
:100CB0000098022101F05EFE04000CD02646288830
:100CC000C043C00523D4A86D05281ED2DFE800F07C
:100CD0000C11161B1B00AA6ED8F8001021F440114D
:100CE0001143C8F80010EAE7386840F40030386073
:100CF00009E00198002101F0ADFD03E0009800211A
:100D000001F038FE044674B100E00124264628882C
:100D1000C043800528D4E86D80281ED00CDC90B13B
:100D200040280ED114E0AA6DD8F8001021F0070178
:100D30001143C8F80010EAE7C02813D0B0F5807F4F
:100D400010D001240FE0386840F40030386009E02A
:100D50000198002101F07EFD03E00098002101F0E0
:100D600009FE04469CB126462888DFF8DC92C04381
:100D700009F12C0940052CD4D5F8A800B0F5800F56
:100D800020D00DDCA0B1B0F5001F0FD115E0EA6D49
:100D9000D8F8001021F4E0711143C8F80010E3E71F
:100DA000B0F5C00F13D0B0F5000F10D001240FE044
:100DB000386840F40030386009E00198002101F003
:100DC00049FD03E00098002101F0D4FD04467CB108
:100DD00026462888C04300052DD4D5F8AC00B0F1D4
:100DE000007F21D00EDCA8B1B0F1807F10D116E0D9
:100DF000D5F8A820D9F8001021F460011143C9F8F2
:100E00000010E6E7B0F1407F13D0B0F1806F10D052
:100E100001240FE0386840F40030386009E00198A0
:100E2000002101F017FD03E00098002101F0A2FD70
:100E3000044674B126462868C04380011FD4E86C7C
:100E4000D8B110280FD0202812D0302815D0012476
:100E500014E0D5F8AC20D9F8001021F0E06111437E
:100E6000C9F80010E7E7386840F40030386004E063
:100E70000198022101F0EEFC044674B12646288850
:100E8000C043C0042BD4286EB0F5005F20D00DDC29
:100E9000A0B1B0F5805F0FD115E06B48EA6C20304F
:100EA000016821F0300111430160E8E7B0F5405FCF
:100EB00013D0B0F5804F10D001240FE0386840F413
:100EC0000030386009E00198002101F0C3FC03E024
:100ED0000098002101F04EFD04468CB1264628887A
:100EE000C043800429D4686EB0F5403F23D010DCA5
:100EF00008B3B0F5803F14D0B0F5003F0FD115E036
:100F00002A6ED8F8001021F4E0411143C8F800100F
:100F1000E5E7B0F5802F0ED0B0F5A02F0BD001245F
:100F20000AE00198012101F095FC03E000980121FD
:100F300001F020FD044694B126462888C0434004B1
:100F40002AD4D5F8B000B0F1405F23D010DC08B34C
:100F5000B0F1805F14D0B0F1005F0FD115E06A6E80
:100F6000D8F8001021F4E0211143C8F80010E4E79C
:100F7000B0F1804F0ED0B0F1A04F0BD001240AE0A9
:100F80000198012101F066FC03E00098012101F0C5
:100F9000F1FC044674B126462888C04300041FD4DF
:100FA000286FD8B1B0F1805F0ED0B0F1005F10D0E3
:100FB000012414E0D5F8B020D9F8001021F0E04168
:100FC0001143C9F80010E7E7386840F40030386092
:100FD00004E00198012101F03DFC044674B126466D
:100FE0002868C043C0011ED4A86CD0B101280ED01F
:100FF000022811D0032814D0012413E02A6FD8F856
:10100000001021F040511143C8F80010E8E738689B
:1010100040F40030386004E00198022101F01AFC2D
:101020000446ACB126462868DFF81CB0C043ABF1DB
:101030001C0B400252D40548016841F480710160E4
:10104000FFF76EFB824611E02C440258004802581C
:10105000FA48AA6C016821F0030111430160E2E73C
:10106000FFF75EFBA0EB0A00642835D8F44800685F
:10107000C005F5D58CBBDFF8C4A3B5F8B4100AF1F0
:10108000240ADAF8000001F4407100F4407088424C
:1010900011D0DAF80010DAF8002021F4407142F49F
:1010A0008032CAF80020DAF8002022F48032CAF830
:1010B0000020CAF80010D5F8B400B0F5807F1AD12E
:1010C000FFF72EFB029012E0FFF72AFB0299411A6C
:1010D00041F2883081420AD9032426462878DFF875
:1010E0005CA3C0430AF1080AC00721D03CE0DAF84B
:1010F00000008007E8D5D5F8B410C1F3012003281B
:1011000058460DD0016821F47C510160B5F8B42037
:10111000DAF80010C2F30B021143CAF80010DDE741
:10112000C84A036802EA111223F47C511143ECE728
:10113000E86F182816D005DCA0B1082808D01028C0
:1011400004D10AE020280DD028280BD001240AE081
:101150000198012101F07EFB03E00098012101F0DC
:1011600009FC044664B126462878C04380071ED493
:10117000A86F062819D2DFE800F0160C1116161613
:10118000EA6FDAF8001021F038011143CAF80010B4
:10119000EAE70198012101F05DFB03E000980121DD
:1011A00001F0E8FB04467CB100E0012426462878E3
:1011B000C04340071FD4D5F89400062819D2DFE8B1
:1011C00000F0160C11161616AA6FDAF8001021F0AE
:1011D00007011143CAF80010E9E70198012101F065
:1011E00039FB03E00098012101F0C4FB0446A4B1DF
:1011F00000E0012426462878C04380062BD4D5F889
:101200009000B0F1405F24D011DC10B3B0F1805FEA
:1012100015D0B0F1005F10D116E0D5F89420D9F8C0
:10122000001021F007011143C9F80010E3E7B0F105
:10123000804F0ED0B0F1A04F0BD001240AE00198EE
:10124000002101F007FB03E00098022101F092FB6E
:10125000044694B126462878C04340062BD4D5F8DE
:101260009C00B0F5406F24D011DC10B3B0F5806F56
:1012700015D0B0F5006F10D116E0D5F89020DAF84F
:10128000001021F0E0411143CAF80010E3E7B0F587
:10129000805F0ED0B0F5A05F0BD001240AE001986A
:1012A000002101F0D7FA03E00098022101F062FB6F
:1012B000044694B126462878C04300062BD4D5F8BE
:1012C000A000B0F5C04F24D011DC10B3B0F5005F22
:1012D00015D0B0F5804F10D116E0D5F89C20D9F884
:1012E000001021F4E0511143C9F80010E3E7B0F514
:1012F000004F0ED0B0F5204F0BD001240AE001982A
:10130000002101F0A7FA03E00098022101F032FB6E
:10131000044654B126462878C04300071ED4D5F8A9
:101320008400B0F5805F0AD00FE0D5F8A020D9F88E
:10133000001021F460411143C9F80010EBE7009858
:10134000022101F017FB00B10126D5F88420DAF85C
:10135000001021F440511143CAF800102878C0430E
:10136000C00613D4D5F89800B0F5807F05D1009859
:10137000022101F0FFFA00B10126D5F89820D9F832
:10138000001021F440711143C9F800102868C043CF
:10139000000316D4D5F8A40038B1B0F5803F09D0C9
:1013A000B0F5003F0BD001240AE00198002101F0C4
:1013B00051FA03E00098022101F0DCFA04468CB1F6
:1013C00026462868C043400322D4D5F88800B0F5EB
:1013D000801F11D0B0F5001F13D0B0F5401F15D0FD
:1013E000012414E0D5F8A420D9F8001021F44031EC
:1013F0001143C9F80010E4E7386840F40030386061
:1014000004E00098012101F0B5FA04465CB12646DB
:101410002868C043C00323D4286DA8B1B0F5803F2D
:1014200017D001241BE0D5F88820DAF8001021F449
:1014300040111143CAF80010EAE700004C4402587A
:1014400000480258CFFFFF00386840F40030386091
:1014500004E00198022101F0FDF90446E4B12646BA
:101460002868C043800005D40098022101F082FA68
:1014700000B101262868C04380031BD4D5F8800042
:10148000B0B1B0F5807F0FD0B0F5007F10D0B0F5CF
:10149000407F0DD001240CE05A482A6D016821F4E8
:1014A000803111430160DBE7386840F40030386078
:1014B000ECB326462868C043C00207D46A6FD8F848
:1014C000001021F000411143C8F800102868C04303
:1014D000C00008D4D5F8B820DBF8001021F4804112
:1014E0001143CBF800102868C043800207D4EA6E8D
:1014F000D8F8001021F080711143C8F80010286856
:10150000C04340000CD4DBF8001021F40041CBF8BC
:101510000010DBF80010D5F8BC201143CBF8001008
:101520002868C04308D437486A6D016800E018E0B5
:1015300021F04051114301602868C043000208D4E3
:10154000D5F88C20DAF8001021F440011143CAF8D4
:10155000001028790024C04300F0010020430AD085
:101560000FE0D5F88020DAF8001021F44071114323
:10157000CAF800109EE70198002101F06BF900B154
:1015800006462879C04300F00200204305D10198A7
:10159000012101F05FF900B106462879C04300F04F
:1015A0000400204305D10198022101F053F900B154
:1015B00006462879C04300F00800204305D1009872
:1015C000002101F0D7F900B106462879C04300F0A8
:1015D0001000204305D10098012101F0CBF900B1A2
:1015E00006462879C04300F02000044304D1009847
:1015F000022101F0BFF900B916B10120BDE8FE8F4C
:101600000020FBE74C4402582DE9F05F04000F4630
:101610007ED0DFF83882D8F8000000F00F00B84222
:101620000CD2D8F8001021F00F013943C8F800108F
:10163000D8F8000000F00F00B84269D12078844D3E
:1016400040070AD52069296801F07001884204D951
:10165000296821F070010143296020787C4E361DF5
:1016600000070AD56069316801F07001884204D929
:10167000316821F07001014331602078C0060AD53D
:10168000A069316801F4E061884204D9316821F42D
:10169000E061014331602078DFF8B4B180060BF1DE
:1016A000080B0CD5E1695846DBF8002002F0700207
:1016B000914204D9026822F070020A430260207845
:1016C00080070AD5E068296801F00F01884204D933
:1016D000296821F00F01014329602078C0073ED01E
:1016E0005B49A2682868183920F4706010432860AC
:1016F0006068022818D0032819D00968012819D079
:10170000490700294ADADFF848A1AAF1080A00E0EF
:1017100044E0DAF8002022F007020243CAF8002071
:10172000FEF7FEFF814612E009688903E9E70968D0
:101730008901E6E7C905E4E7FEF7F2FFA0EB09013E
:1017400041F28830814202D90320BDE8F09F6168F0
:10175000DAF8000000F03800B0EBC10FECD12078CF
:1017600080070AD5E068296801F00F01884204D299
:10177000296821F00F0101432960D8F80010404684
:1017800001F00F01B9420BD9016821F00F01394373
:101790000160006800F00F00B84201D00120D4E7DA
:1017A000207840070AD52069296801F07001884235
:1017B00004D2296821F070010143296020780007D4
:1017C0000AD56069316801F07001884204D231683D
:1017D00021F07001014331602078C0060AD5A0696C
:1017E000316801F4E061884204D2316821F4E0619B
:1017F00001433160207880060CD5E1695846DBF85A
:10180000002002F07002914204D2026822F07002BD
:101810000A43026000F09AF80E492A682B68C2F366
:10182000032203F00F038A5CC95C02F01F0201F07F
:101830001F01D040084A20FA01F1116007490860F1
:1018400007480068BDE8F05FFEF7A6BF0020005221
:1018500018440258484B0008100000240C000024D3
:101860000400002470B5144C3F220260124A246820
:101870000832131D114D04F00704446016681C1D46
:1018800006F470668660166806F00F06C660126879
:1018900002F0700202611A6802F0700242611A6876
:1018A00002F4E0628261226802F07002C26128687C
:1018B00000F00F00086070BD104402580020005274
:1018C00030B500F043F80B4A0B490C4B156814680F
:1018D000C5F3032204F00F048A5C095D02F01F02C5
:1018E00001F01F01D040064A20FA01F11960106092
:1018F000084630BD18440258484B00081000002428
:101900000C00002400B5FFF7DBFF05490968054A14
:10191000C1F30211515C01F01F01C84000BD00007D
:101920001C440258484B000800B5FFF7C9FF0549A1
:101930000968054AC1F30221515C01F01F01C8404A
:1019400000BD00001C440258484B0008454970B5D2
:1019500045480968434B103B11F0380208D001118B
:10196000082A03D0102A0BD0182A0BD0084670BDC5
:1019700019688906FBD51968C1F3C101C84070BD5B
:101980003A4870BD3749374D18310C1D24350A6867
:10199000096826682D6802F0030406F00102C1F30D
:1019A0000511C5F3CC0515FB02F200EE102AB8EEC6
:1019B000400AE9B32F4ADFED2E0AB7EE001A6CB1E8
:1019C000DFED2D1A012C01D0022C43D002EE101AAB
:1019D0001068F8EE422A81EEA22A1EE01C68A406D6
:1019E00011D51B6801EE901A1168C3F3C103F8EE1C
:1019F000612AD84001EE900AC1F30800F8EE611A9E
:101A000081EEA22A0BE001EE901ADFED1C2A00BF46
:101A1000F8EE611A106882EEA12AC0F3080001EE08
:101A2000900AF8EE611A40EE201A31EE810A00E0C9
:101A300015E022EE000A1068C0F34620401C00EEBC
:101A4000900AF8EE600A80EE201ABCEEC10A10EE91
:101A5000100A70BD01EE901ADFED092AD8E70020C8
:101A600070BD0000104402580090D00340787D0102
:101A700000000039304402580024744A0024744C99
:101A800020BCBE4B2DE9F05F04007DD0FF4F2078D5
:101A9000FE4D1837DFF8F493103DC00748D0D9F851
:101AA0000000396800F03800102815D0182803D13C
:101AB00001F0030002280FD06068B0F5803F12D01B
:101AC00010B1B0F5A02F18D0286820F4803028601D
:101AD000286820F4802009E02868800328D5606801
:101AE0000028D2D024E0286840F480302860606864
:101AF00088B1FEF715FE064609E0286840F480200C
:101B00002860F0E7FEF70CFE801B64286FD8286879
:101B10008003F7D50CE0FEF703FE064605E000BFA4
:101B2000FEF7FEFD801B6428F0D828688003F7D4F8
:101B3000207841F20308D54E0C3E800769D5D9F8CC
:101B40000000396810F038000ED0182801D188073D
:101B50000AD0E06890B3296821F019010143296097
:101B6000FEF7DEFD824631E02868400702D5E068D6
:101B700000288AD0E168286820F01900084328600E
:101B8000FEF7CEFD824607E0DFE000BFFEF7C8FDAE
:101B9000A0EB0A000228B9D828684007F6D500BF94
:101BA000FEF7B8FD40451BD82069402812D03168A7
:101BB00021F47C3141EA003030602AE018E000BFB7
:101BC000FEF7AEFDA0EB0A0002289FD82868400768
:101BD000F6D5E5E7306820F47C3040F40030EBE7E0
:101BE000207C316821F0FE4141EA0060E4E70DE12C
:101BF000286820F001002860FEF792FD824605E08B
:101C0000FEF78EFDA0EB0A0002288DD82868400759
:101C1000F6D42078C0065DD5D9F80000DFF86CB2A4
:101C2000396800F03800ABF1040B082810D01828F0
:101C300003D101F0030001280AD0E06900282868D8
:101C400038D040F080002860FEF76AFD824623E02D
:101C50002868C00523D5E069802876D11FE0206A76
:101C6000202821D0316821F0F84141EA80603060BD
:101C700030E000BF94F82010DBF8002022F07C5206
:101C800042EA0161CBF8001024E000BFFEF748FDF6
:101C9000A0EB0A00022898D82868C005F6D5FEF700
:101CA00039FD4045E6D8DAE7306820F0F84040F0EA
:101CB0008040DCE720F080002860FEF731FD06461A
:101CC00005E000BFFEF72CFD801B02289DD8286888
:101CD000C005F7D42078000729D56C4861696430C5
:101CE00000298046016811D041F001010160FEF732
:101CF00017FD064605E000BFFEF712FD801B022817
:101D0000C9D8D8F800008007F6D510E021F001010D
:101D10000160FEF705FD064605E000BFFEF700FD89
:101D2000801B022872D8D8F800008007F6D42078EB
:101D3000800623D5A0690028286810D040F4805080
:101D40002860FEF7EDFC064605E036E1FEF7E8FC0C
:101D5000801B02285AD828688004F7D50EE020F4AA
:101D600080502860FEF7DCFC064604E0FEF7D8FC55
:101D7000801B02284AD828688004F7D420784007BE
:101D80004FD5DFF80C81D8F8001041F48071C8F805
:101D90000010FEF7C5FC064605E000BFFEF7C0FCDC
:101DA000801B642832D8D8F80000C005F6D5374E1D
:101DB000A068603601280AD008B1052813D0306821
:101DC00020F001003060306820F0040002E030684C
:101DD00040F001003060A06841F2883A90B1FEF70F
:101DE0009FFC80460AE0306840F004003060EEE777
:101DF000FEF796FCA0EB0801514507D83068800734
:101E0000F6D50EE0FEF78CFC804607E084E000BFCC
:101E1000FEF786FCA0EB080151457DD830688007AD
:101E2000F6D4606AB0B3DFF86480D9F8001008F126
:101E300020084FF6F87B08F10409C1F3C201032919
:101E4000A8F1040A69D00228286820F08070286070
:101E500003D0FEF765FC044684E0FEF761FC06460D
:101E600005E000BFFEF75CFC801B022877D82868DD
:101E70008001F7D4E26A40F2F331386854F8283F21
:101E8000884340EA02101843386004E010440258C6
:101E900000480258B5E0217B434622894FF4FE0CEE
:101EA000208A4FF0FE474902267D521E401EA1F5B2
:101EB0000071C2F308088AB2761E0CEA004042EABA
:101EC00008020243504607EA06610A431A60DAF83C
:101ED000002022F00102CAF80020D9F80020266A6A
:101EE00022EA0B0242EAC602C9F80020DAF8001022
:101EF000A26921F00C011143CAF800100168E269DF
:101F000021F0020111430160016841F48031016058
:101F1000016841F4003101E021E027E0016001683F
:101F200041F480210160016841F0010101602868ED
:101F300040F080702860FEF7F3FB044605E000BF28
:101F4000FEF7EEFB001B022809D828688001F7D5B0
:101F500057E000BFFEF7E4FB001B022802D9032074
:101F6000BDE8F09F28688001F4D44AE03968012870
:101F7000D8F8000021D0A26A01F0030393421CD1DB
:101F8000E26AC1F305118A4217D1216BC0F308023E
:101F9000491E8A4211D1616BC0F34622491E91420B
:101FA0000BD1A16BC0F30642491E914205D1E16BF2
:101FB000C0F30660491E814201D00120D0E7A16C28
:101FC0004E46D9F80000C0F3CC00814219D0DAF8AF
:101FD0000000554620F00100CAF80000FEF7A0FB03
:101FE0004FEA0007FEF79CFBB842FBD0A26C3068BA
:101FF00020EA0B0040EAC2003060286840F001008F
:1020000028600020ACE700002DE9F047040029D04B
:10201000594A4FF000092068584B594D9042C4F876
:10202000289006D0984204D0A84202D0E1680F2937
:1020300018D8E1684FF0010AE76B0831C9080AEBCC
:1020400057167143904205D0984203D0A84201D060
:10205000082907D8904203D0984201D0A84204D161
:10206000102902D90120BDE8F08794F8810020B939
:10207000204684F8809000F085F8022084F88100E2
:102080002068016821F0010101602068A16982686F
:10209000B1F1806F02F4F81110D16268B2F5800FCF
:1020A00001D01AB10AE0A26B22B107E0A26BB2F133
:1020B000805F03D1026842F480520260606840028F
:1020C00009D5E068072806D32068236D026822F44A
:1020D00080721A4303E02068026822F48072026072
:1020E000A66AE069E26B25683043E3680A4310435F
:1020F0001843A860D4E90D02D4E90581636A256913
:102100001843D4F820C00A43266810432843A56D1D
:10211000D4E90172D4E9123140EA080040EA0C0027
:1021200038430843104318432843F060606868B997
:102130002068816821F4C05141F400618160206809
:10214000816821F4C06141F4806181602068016D83
:1021500021F0010101656068400206D52068626DCA
:10216000C16821F000411143C160C4F8849084F833
:1021700081A0002077E700000030014000380040D7
:10218000003C004010B5B6B00446142130A8FEF75C
:102190004BF9C0216846FEF747F918492068884284
:1021A0002AD18114002018900446CDE90010684619
:1021B000FEF754FD08B1FEF775F91148016841F4C6
:1021C00080510160006800F4805035900C48103850
:1021D000016841F001010160006830AB022100F0AC
:1021E00001003590E020052283E81300054830A95E
:1021F000CDE93342FEF76AF936B010BD0030014038
:10220000F04402580000025870477047704710B5FC
:10221000040003D094F83D0010B107E0012010BD88
:10222000002084F83C00204600F022F8022084F8C8
:102230003D002068211D00F039FD012084F8480090
:1022400084F83E0084F83F0084F8400084F84100A0
:1022500084F8420084F8430084F8440084F8450080
:1022600084F8460084F8470084F83D00002010BD43
:102270007047000090F83D10012901D001207047FF
:10228000174A022180F83D100168CB6843F0010332
:10229000CB600068904214D0B0F1804F11D011494A
:1022A00088420ED0104988420BD01049884208D08D
:1022B0000F49884205D00F49884202D00E49884212
:1022C00007D181680D4A1140062906D0B1F5803F3B
:1022D00003D0016841F00101016000207047000057
:1022E000000001400004004000080040000C0040D5
:1022F00000040140001800400040014007000100B8
:1023000070472DE9F041044600680027C66805695A
:10231000A90713D5B10711D5FA1E02610121217752
:10232000206880698007204602D0FFF7E9FF04E0BB
:1023300000F08BF8204600F089F82777680716D55B
:10234000700714D5226802206FF004011161207714
:102350002068806910F4407F204602D0FFF7D0FF4C
:1023600004E000F072F8204600F070F827772807A4
:1023700015D5300713D5226804206FF008011161CC
:1023800020772068C0698007204602D0FFF7B8FF99
:1023900004E000F05AF8204600F058F82777E806E5
:1023A00016D5F00614D5226808206FF010011161CF
:1023B00020772068C06910F4407F204602D0FFF7E4
:1023C0009FFF04E000F041F8204600F03FF8277737
:1023D000E80708D0F00706D021686FF00100086117
:1023E000204600F035F8280601D4A80408D53006A8
:1023F00006D521686FF4025008612046FFF705FFFB
:10240000E80508D5300606D521686FF480700861AC
:102410002046FFF7F9FE680608D5700606D5216844
:102420006FF040000861204600F01CF8A8060AD5AD
:10243000B00608D521686FF0200008612046BDE88D
:10244000F041FFF7E3BEBDE8F08170477047000040
:1024500000680349884201D1FEF768B9704700005F
:1024600000100040704730B590F88410012918D052
:10247000012280F884202421C0F888100022202422
:1024800001680B680D6823F0005325F001050D600D
:10249000426601680B60C0F8884080F884201046CE
:1024A00030BD022030BD70B5044690F8840001288C
:1024B0001DD0012284F884202420C4F888002068DC
:1024C0000568026822F0010202602068826822F03A
:1024D00060620A438260204600F050FC226820219E
:1024E00000201560C4F8881084F8840070BD0220B4
:1024F00070BD70B5044690F8840001281DD00122FB
:1025000084F884202420C4F88800206805680268C4
:1025100022F0010202602068826822F060420A43D1
:102520008260204600F02AFC2268202100201560ED
:10253000C4F8881084F8840070BD022070BD10B506
:10254000040003D0D4F8880010B107E0012010BDCA
:10255000002084F88400204600F026F82420C4F8E7
:1025600088002068016821F001010160A06A10B1B3
:10257000204600F025FC204600F006FD0128E6D0AC
:102580002068416821F4904141602068816821F011
:102590002A0181602068016841F001010160204644
:1025A000BDE8104000F070BC10B5B6B00446142170
:1025B00030A8FDF739FFC0216846FDF735FF1949FE
:1025C000206888422BD100201F9001210446CDE9CC
:1025D00000106846FEF742FB08B1FDF763FF1248A2
:1025E000016841F010010160006800F010003590B2
:1025F0000D481038016841F001010160006830ABFE
:10260000022100F0010035904FF4C060072283E8FA
:102610001300064830A9CDE93342FDF757FF36B025
:1026200010BD000000100140F044025800000258A4
:102630002DE9F8430446D0F88800984616460D4622
:10264000202802D00220BDE8F883A5B19EB1002168
:10265000C4F890102120C4F888001834FEF760F800
:10266000814654F8100CA687E6872027183CB0F561
:10267000805F02D003E00120E5E7206910B12E461B
:10268000002510E000260EE08021204600F052FEDA
:10269000C0B9DEB116F8010B21688862B4F85600A3
:1026A000401EA4F85600B4F856004B464FF0000206
:1026B000CDF800800028E7D14FF04001204600F01F
:1026C00039FE48B1C4F888700320BCE735F8020B26
:1026D0002168C0F30800E0E7C4F888700020B2E782
:1026E000FEE70000F0B587B014216846FDF79CFEB8
:1026F0002448016841F080010160016801F0800117
:102700000591016841F001010160016801F00101DA
:102710000591016841F040010160016801F040014C
:102720000591016841F00201016000680022164E27
:10273000802100F0020005903046FDF7E5FF134FC1
:102740000122C0213846FDF7DFFF0024694601253C
:1027500080200090CDE9015430460394FDF7B6FE89
:10276000202069468DE831003846FDF7AFFEC020D5
:102770000090CDE90154694638460394FDF7A6FE62
:1027800007B0F0BDE0440258001802580004025897
:1027900070B5144807244FF08042114E00211311E8
:1027A000C0E9021401611512C0E90513C0E907214F
:1027B00041628162C162C0E90D21C163016441646B
:1027C0008164C164016541658165C0E90065FFF709
:1027D0001BFC002803D0BDE87040FDF763BE70BD50
:1027E00000300140A00000241848002110B5164C0C
:1027F0000C224FF4E1330460C0E90131C160C0E94B
:1028000004128161C161016241628162FFF797FE3A
:1028100008B1FDF747FE0D480021FFF76AFE08B139
:10282000FDF740FE09480021FFF73DFE08B1FDF726
:1028300039FE0648FFF717FE002803D0BDE8104018
:10284000FDF730BE10BD000000100140280100243B
:10285000FEE7FEE72DE9F047454D044689464FF077
:10286000000A2868C04380070AD0414E283E3068DD
:1028700020F080603060FDF753FF0746B04608E067
:102880000120BDE8F08700BFFDF74AFFC01B02280A
:1028900067D8D8F800000001F6D4206829684FF402
:1028A000FE0721F47C313E0241EA00302860207AA4
:1028B000A389B4F804C040022D4D2D495B1E227C33
:1028C000ACF1010C1035091DA0F5007080B2521E4C
:1028D000CCF3080C07EA034340EA0C00184306EA6D
:1028E0000262104328600868626920F0C00010434B
:1028F00008600A68A06922F0200202430A60281DCD
:102900000A6822F010020A6002684FF6F873E46960
:102910009A4342EAC40202600868B9F1000F40F02D
:1029200010020A6011D00868B9F1010F11D040F40B
:1029300000100860D8F80000444640F08060C8F8F5
:102940000000FDF7EDFE05460DE0086840F40020AC
:10295000EFE740F48010ECE7FDF7E2FE401B0228B1
:1029600001D903208DE720680001F5D5504688E79E
:10297000284402582DE9F047454D044689464FF05A
:10298000000A2868C04380070AD0414E283E3068BC
:1029900020F080503060FDF7C3FE0746B04608E0E7
:1029A0000120BDE8F08700BFFDF7BAFEC01B02287A
:1029B00067D8D8F800008000F6D4208829684FF442
:1029C000FE0721F07C713E0241EA00502860207A27
:1029D000A389B4F804C040022D4D2D495B1E227C12
:1029E000ACF1010C1835091DA0F5007080B2521E23
:1029F000CCF3080C07EA034340EA0C00184306EA4C
:102A00000262104328600868626920F44060104345
:102A100008600A68A06922F4007202430A60281D57
:102A20000A6822F480720A6002684FF6F873E4695B
:102A30009A4342EAC40202600868B9F1000F40F408
:102A400080720A6011D00868B9F1010F11D040F00E
:102A500080700860D8F80000444640F08050C8F804
:102A60000000FDF75DFE05460DE0086840F48000BB
:102A7000EFE740F40000ECE7FDF752FE401B0228B0
:102A800001D903208DE720688000F5D5504688E7FE
:102A9000284402581CB501F0EDF90E49022000232C
:102AA000C201CDE900010E480BA101F0D9FD094991
:102AB00003200023091D4FF40072CDE900010B48EB
:102AC00008A101F0CDFD01F0F9F9BDE81C4000209E
:102AD00001F0C6BA940000247461736B31000000E9
:102AE0004D3D00087461736B32000000693D0008C1
:102AF00072B6502010B580F31188BFF34F8FBFF32B
:102B00006F8F62B601F02EFE18B104494FF080506D
:102B10000860002080F3118810BD000004ED00E083
:102B200030B59DB04C216846FDF77EFC202113A8EE
:102B3000FDF77AFC0220FDF711FF20490024204810
:102B40000A6822F001020A600968016841F4404104
:102B50000160016801F440411B9101688904FCD5C2
:102B60000220099040250121009104230A90C2030C
:102B70000192CDE90B05CDE90D030FAB0C2183E8E4
:102B8000130068461294FEF77DFF08B172B6FEE7A7
:102B900008221A95CDE91625D30113AA3F20032157
:102BA000CDE9185382E81300022113A8FEF72CFD8B
:102BB000002801D072B6FEE71DB030BD2C040058CD
:102BC000184802582C48F0B52C4A016841F47001AD
:102BD0000160106800F00F00072804D2106820F090
:102BE0000F00C01D106026490020254C10340B68D2
:102BF000244D43F001030B6020600B682B400B60F9
:102C0000136803F00F03072B04D9136823F00F0395
:102C1000DB1D13601A4C1C4A18341C4B261D371D33
:102C20002060174C1A4D28343060261D3860371D3F
:102C300023603B1D35601C1D3A60251D2E1D18604C
:102C4000331D22602860326018600A680C4B114CFA
:102C500022F4802260330A60186020686FF30F004E
:102C6000B0F1005F03D20C490120C1F8080143F222
:102C7000D2000A490860F0BD88ED00E00020005253
:102C8000004402587FEDF6EA8002010100020202D0
:102C90000000FF010010005C008000510040005265
:102CA0000148FFF72EBB0000BC0100242DE9F047CE
:102CB0002A4B4FF0804A2A4D02689842294E2A4FEB
:102CC0002A4C09D0504507D0A84205D0B04203D0C5
:102CD000B84201D0A04205D1D1F804C022F0700260
:102CE0004CEA0202DFF888C0DFF888809842DFF8FB
:102CF00088900FD050450DD0A8420BD0B04209D0DB
:102D0000B84207D0A04205D0604503D0404501D06D
:102D1000484503D1CD6822F440722A434D6922F020
:102D200080022A43026098428A68C2620A6882620C
:102D300007D0A04205D0604503D0404501D04845AA
:102D400001D109690163012141610169C90703D00A
:102D5000016921F001010161BDE8F0870000014037
:102D60000004004000080040000C00400004014046
:102D700000400140004401400048014030B5416E30
:102D8000B9B101680D4B03F108048A688968C2F380
:102D90004262490F5D5C615C2D01B5FBF1F1A0F869
:102DA0006A10995CA25C0901B1FBF2F1A0F868100D
:102DB00030BD0121A0F86A10F8E70000384B000888
:102DC00090F82810090706D50168836B4A6822F439
:102DD00000421A434A6090F82810C90706D00168DB
:102DE000C36A4A6822F400321A434A6090F82810F5
:102DF000890706D50168036B4A6822F480321A43BA
:102E00004A6090F82810490706D50168436B4A6864
:102E100022F480221A434A6090F82810C90606D589
:102E20000168C36B8A6822F480521A438A6090F862
:102E30002810890606D50168036C8A6822F40052BE
:102E40001A438A6090F82810490611D50168436C2E
:102E50004A6822F480121A434A60416CB1F5801F1F
:102E600006D10168836C4A6822F4C0021A434A60A2
:102E700090F82810090606D50168C26C486820F44D
:102E800000201043486070472DE9F84300250446B0
:102E9000C0F89050FDF744FC8046206820266FF073
:102EA0007E470068000713D50022434631042046C0
:102EB000009700F03FFA58B1216851E8000F20F068
:102EC000800041E80002002AF6D1C4F8886021E0C1
:102ED00020680068400722D5002243464FF4800155
:102EE0002046009700F026FAC8B1206850E8001F7D
:102EF00021F4907140E80012002AF6D120680830D1
:102F000050E8001F21F0010140E80012002AF5D12D
:102F1000C4F88C60032084F88450BDE8F883C4F8BA
:102F20008860C4F88C60E5662567002084F88450CA
:102F3000F3E7000010B5026852E8001F21F4907119
:102F400042E80013002BF6D10E4B0268083252E81B
:102F5000001F194042E80014002CF6D1C16E01296F
:102F600008D1026852E8001F21F0100142E8001366
:102F7000002BF6D100212022C0F88C20C1664167C9
:102F800010BD0000FEFFFFEF2DE9F043044680680E
:102F9000D84E87B0D84B2168D4E90427D4F81CC098
:102FA00010430A68002547EA0C07384332400243C1
:102FB0000A602068E268416821F440511143416091
:102FC0002268A1699A4201D0206A01439768DFF81C
:102FD0002CC3CB4ECB4807EA0C070F439760216800
:102FE000676ACA6A22F00F023A43CA622268B24292
:102FF0000ED1006800F03800182873D047DCB8B351
:10300000082879D010286FD178E028287ED17BE07D
:10301000BD498A4209D1006800F00700062875D230
:10302000DFE800F0546A6C6E7072B8498A4209D1C8
:10303000006800F00700062868D2DFE800F0475D6E
:103040005F616365B2498A4209D1006800F00700F8
:1030500006285BD2DFE800F03A5052545658AD498A
:103060008A420BD1006800F0070006284ED200E02B
:1030700010E0DFE800F02B4143454749A6498A426A
:103080000AD1006800F03800182839D0B7DD2028B0
:10309000BBD13CE001203AE0A0498A4209D1006856
:1030A00000F00700062831D2DFE800F01026282AB9
:1030B0002C2E9B498A420BD1006800F0070006289D
:1030C00024D2DFE800F003191B1D1F2100201EE0A1
:1030D0009A421BD18B48001D006800F007000628AB
:1030E00014D202E00CE007E010E0DFE800F0030596
:1030F00007090B0D02200AE0042008E0082006E082
:10310000102004E0202002E0402000E080208549DB
:10311000DFF814829A42854A4FF400434FEA2117A0
:103120004FF000064ED110281AD006DC022809D034
:1031300004280BD008287CD10DE020283ED0402860
:1031400077D13DE0FDF734FC014610E06846FDF71D
:1031500041FC01990BE003A8FDF7DEFC049906E0B1
:103160001068800605D51068C0F3C100C140002971
:1031700070D0606A676838F8102007EB4703B1FB2E
:10318000F2F0834255D8B0EB073F52D800230846EF
:103190001946FDF7FFF802467808130E120243EABB
:1031A000012110183A4671410023FDF7F3F8604AF7
:1031B000A0F5407191423CD821688FE03946D8E7AC
:1031C0001946D6E7D4F81CC04FF6EF799C4546D196
:1031D000082819D005DC58B101280CD0042875D175
:1031E0000DE0102815D0202835D040286ED134E0CD
:1031F000FEF788FB01E0FEF797FB014610E068460A
:10320000FDF7E8FB01990BE003A8FDF785FC0499A5
:1032100006E01068800604D51068C0F3C100C14004
:10322000C1B1636A606838F81330B1FBF3F149004B
:1032300000E04BE001EB5001B1FBF0F0A0F1100118
:10324000494543D84FF6F0732168C0F34202184055
:10325000104343E043E03946E3E71946E1E7082835
:1032600019D005DC58B101280CD004282ED10DE06E
:10327000102815D020282BD0402827D12AE0FEF78F
:1032800041FB01E0FEF750FB014610E06846FDF708
:10329000A1FB01990BE003A8FDF73EFC049906E0B1
:1032A0001068800604D51068C0F3C100C140B1B1F8
:1032B000636A606838F81330B1FBF3F101EB500139
:1032C000B1FBF0F0A0F11001494505D9012506E058
:1032D0003946EDE71946EBE7216880B2C860012066
:1032E000A4F86A00A4F8680028466667A66707B0D5
:1032F000BDE8F083F369FFCF000C0058FFF4FF1125
:10330000001001405444025800440040004800406E
:10331000004C004000500040001401400078004084
:10332000007C00400090D003204B0008004402586D
:10333000FFFC0F002DE9F047994617460D4604465D
:10334000089E4FF0000833E0701C31D0FDF7E8F91B
:10335000A0EB0900B04218D8BEB120680168490747
:1033600026D5802D24D0402D22D0C169C94309071C
:103370000DD4082505622046FFF7DCFDC4F8905007
:10338000012084F88480BDE8F0870320FBE7C06952
:10339000C04300050CD421684FF400600862204649
:1033A000FFF7C8FD2021C4F8901084F88480ECE772
:1033B0002068C06935EA000004D00020B842C3D0BC
:1033C0000020E0E70120F9E7FEE70000014A02499A
:1033D00000F024B8413400089C00002409070028AC
:1033E0004FEA116104DB00F1E02080F8001470471F
:1033F00000F00F0000F1E02080F8141D704702E09B
:1034000008C8121F08C1002AFAD17047704700206F
:1034100001E001C1121F002AFBD170472DE9F041E4
:1034200016460F460446002503E03946B047641CA3
:103430006D1C20780028F8D12846BDE8F0810000F6
:1034400013B5044801224FF0FF336946FFF7F0F847
:1034500000981CBD28010024074901201CB5002349
:103460008022CDE90001084804A101F0F9F8BDE887
:103470001C4000F093BE0000900000245374617261
:10348000745F5461736B0000952A00081FB5002417
:103490000094019402940394FDF7F2F901208DF851
:1034A0000C001F218DF8081087228DF809208DF857
:1034B0000D008DF8000068468DF80A408DF80E402A
:1034C0008DF8014001948DF80B408DF80F40FDF709
:1034D000A9F90420FDF7E2F9FDF730F9FFF720FB29
:1034E000FFF700F9FFF754F9FFF77EF907A0FFF7A0
:1034F0006DFFFFF7B1FF094C4FF4FA7580212046AC
:10350000FDF7FAF82846FCF7CFFFF7E768373433C2
:1035100020626F6F74206F6B0D0A00000018025854
:103520002DE9F0411A4C0F460546E6682068001D5B
:1035300000F02EFC681C15D1A7B116492268486816
:10354000906023688268DA6022688368121D5A607E
:103550002268121D8260206841610868401C086072
:10356000BDE8F08120683544B5424560216805D248
:10357000E06B091DBDE8F04100F058BCA06B091DCF
:1035800000F054FCA06A8542EAD2A562E8E7000098
:1035900014000024F80600242DE9F041054600F04F
:1035A00069FC354C354FA068401CA060206810B104
:1035B000606930B32BE02560A068012827D1002680
:1035C00006EB860007EB800000F022FC761C382E0C
:1035D000F6D32B4800F01CFC2948143000F018FCEE
:1035E0002748283000F014FC25483C3000F010FC3F
:1035F0002348503000F00CFC2148A0631430E063F5
:1036000005E0E86A2168C96A814200D82560606ADD
:10361000401C60626864E86A2169884200D92061C0
:1036200000EB8000291D07EB80004068A8608268DD
:10363000EA60826851608160E86A00EB800007EB15
:103640008001696157F82010491C47F8201000F0EC
:1036500035FC606900280CD02068E96AC06A88429D
:1036600007D208494FF080500860BFF34F8FBFF377
:103670006F8FBDE8F0810000140000244802002490
:10368000A806002404ED00E038B500F0F3FB104C70
:103690002068C8B90F4800F0BBFB0E48143000F09A
:1036A000B7FB0C490020E16014312161A1F5827360
:1036B0000090A1F1B40210210A2000F065FE206004
:1036C00010B105A100F058FCBDE8384000F0F6BB91
:1036D00054000024FC070024546D725100000000C7
:1036E00030B4026C0B46002A0BD0D0E902411144E1
:1036F000C160A14201D30168C160184630BCFCF72B
:103700007ABE30BC704710B5044690F8590068B1D5
:1037100001280ED0022811D072B6502080F31188F3
:10372000BFF34F8FBFF36F8F62B6FEE7206B00F0E1
:10373000DBFB2046BDE8104000F0D6BB10BD00000A
:103740000F484FF4705110B5420706D00C49C01D08
:1037500020F00700411AC1F570510A4C00220144C3
:103760000839A4F1140321F00701C4E900020C1A7E
:1037700019604A600A60C0E900149C605C6010BD7A
:103780002408002488000024144E4FF08058144C64
:10379000DFF85090A6F29C4712E000BF00F06AFBF1
:1037A000F068C568281D00F0F3FAA068401EA0600C
:1037B0006068401E606000F081FB2846FFF7A3FFB1
:1037C00060680028EAD138680128F9D9C9F8008072
:1037D000BFF34F8FBFF36F8FF2E70000E4060024C2
:1037E0001400002404ED00E070B51D46049C51B1A6
:1037F000C4F80020C4E90F010121204600F0ECFDCF
:1038000084F84C5070BD2460F4E72DE9F0470D4674
:10381000994691001746DDE90984089EA522824653
:10382000206BFCF7FAFD206B6FF0030101EB8701C1
:10383000084420F00707780709D072B6502080F3BB
:103840001188BFF34F8FBFF36F8F62B6FEE765B18C
:1038500000202218295C82F83410295C11B1401C28
:103860001028F6D3002084F84300382E09D372B60E
:10387000502080F31188BFF34F8FBFF36F8F62B674
:10388000FEE7E662201DE66400F0CDFA04F11800C0
:1038900000F0C9FA2461C6F1380064624A46514614
:1038A000A061384600F03AFAB8F1000F206001D06C
:1038B000C8F80040BDE8F08730B5114900E0114676
:1038C0000A688242FBD34B685C18844203D1446887
:1038D000084623444B6043681D18954209D1084CA3
:1038E000143C2468A24209D052681A4442600A6813
:1038F00012680260814200D0086030BD0460F9E7C0
:103900008800002470B50D4D914241604FF00004D5
:10391000006106D88169D21A8A4206D2011D28693F
:1039200007E09A4203D2994201D3012403E0011D2A
:10393000E86800F07BFA204670BD000054000024C7
:1039400010B5044600F096FAA06B28B15FF00004B1
:1039500000F0B4FA204610BD0124F9E770B5064620
:103960000D480D46C068C068C468201D00F010FAFC
:1039700094F82800410705D52A463146204600F034
:10398000BDF803E000F0FE0084F82800216A20461C
:10399000BDE87040084700005400002470B53B4E5D
:1039A00086B069E00098002806DA019ADDE9020194
:1039B0009047009800285FDB029C606910B1201DD1
:1039C00000F0E6F904A800F0BBF8054600980A28C4
:1039D00052D2DFE800F0510505282B450505282BBC
:1039E00094F828002A4640F0010084F82800A169D4
:1039F0000198014403462046FFF784FF28B394F85A
:103A00002800410707D501982A46A16901442046AC
:103A100000F074F803E000F0FE0084F82800216A4A
:103A20002046884728E094F8280021E094F82800F0
:103A300040F0010084F828000198A06130B14119DC
:103A40002B461A462046FFF75DFF15E072B6502060
:103A500080F31188BFF34F8FBFF36F8F62B6FEE71D
:103A600094F82800810703D4204600F03DFA03E0D3
:103A700000F0FE0084F8280030680022694600F05B
:103A80000DFD00288ED106B070BD0000540000244A
:103A9000F8B50D46064600F0C7FB684600F050F842
:103AA0000446009810B100F067FFF8BD1148ADB1B1
:103AB00001690968D9B100250068311B2A4600F068
:103AC00085FA00F059FF0028EFD10B494FF08050E4
:103AD0000860BFF34F8FBFF36F8FF8BDA642EBD8DE
:103AE00000F04AFF21463046FFF738FFF8BD0125B8
:103AF000E2E700005400002404ED00E070B5164633
:103B00000C46054604E0A869296A0444284688470B
:103B1000A8692346324601192846FFF7F3FE00281C
:103B2000F1D170BD0548816B096821B1816BC9680D
:103B30000968816270474FF0FF31FAE714000024F2
:103B40002DE9F041064600F007FE0E4C0546A06840
:103B5000854214D24FF0FF3704E0C0683946006850
:103B6000FFF7FCFEE06801680029F6D12169C4E98D
:103B70000310012030602846A560BDE8F0810020D8
:103B8000F8E70000540000240A484068401C72B660
:103B90004FF0500080F3118805D0BFF34F8FBFF373
:103BA0006F8F62B6FEE7BFF34F8FBFF36F8F62B6C2
:103BB000FEE7000068000024074CE068016841B19E
:103BC000C0680021D0F80000FFF762FFFFF7E6FEB3
:103BD000F3E701210020F7E7540000242DE9F0412C
:103BE000044600F047F994F9455004F1240609E031
:103BF000606A48B1304600F04FFE08B100F084FA28
:103C00006D1E6DB2002DF3DC4FF0FF3684F8456079
:103C100000F054F900F02EF994F9445004F1100723
:103C200009E0206948B1384600F036FE08B100F0DE
:103C30006BFA6D1E6DB2002DF3DC84F84460BDE8B4
:103C4000F04100F03BB9000070B50026044600F0DA
:103C5000EBFA314D286808B9FFF772FDA4B304F000
:103C60000700C0F11000C1438C4202D8211800297E
:103C700002DC00F081FE3FE068688142F9D8264806
:103C800014300246146801E02046144662688A42F5
:103C900002D22268002AF7D12A689442E9D0066845
:103CA0002268026008366068421A102A11D960182A
:103CB00043070AD072B6502080F31188BFF34F8FAC
:103CC000BFF36F8F62B6FEE713E042606160FFF7FB
:103CD000F3FD61686868401A6860AA68904200D283
:103CE000A86041F000410020C4E90001E868401CE0
:103CF000E86000F041FE0EB900F076F8700709D0D8
:103D000072B6502080F31188BFF34F8FBFF36F8FCF
:103D100062B6FEE7304670BD7400002470B5041F23
:103D2000094E231F4FF0807521F0010125601C1FF3
:103D30001960A0F120010B1F266044380A606FF063
:103D400002051D6070BD0000893B0008054C4FF462
:103D5000FA7580212046FCF7CFFC284600F058F980
:103D6000F7E70000001802584FF47A7403A0FFF739
:103D70002DFB204600F04CF9F8E70000467265651F
:103D800052544F532072756E6E696E670D0A0000B3
:103D9000D0E9013201699A60D0E901235A604A688A
:103DA000824201D182684A60002202610868401E96
:103DB000086008687047000010B5044C4FF40073A9
:103DC000046004F15C000860136010BD244400240A
:103DD00010B5044C4FF48073046004F15C0008607B
:103DE000136010BD804C002472B6502080F31188FF
:103DF000BFF34F8FBFF36F8F62B6FEE772B65020EE
:103E000080F31188BFF34F8FBFF36F8F62B6FEE769
:103E10004FF0FF3300F108010022C0E901130260F6
:103E2000C1600161704700210161704730B50B68C6
:103E30005A1C02D000F1080202E0026904E02246A6
:103E4000546825689D42FAD953684B6099608A602E
:103E5000516008610168491C016030BD42684A60D8
:103E600093688B6093685960916008610168491C90
:103E70000160704772B6502080F31188BFF34F8FF6
:103E8000BFF36F8F0B4962B64868401C4860012839
:103E90000ED10948006810F0FF0F09D072B650200B
:103EA00080F31188BFF34F8FBFF36F8F62B6FEE7C9
:103EB000704700006800002404ED00E009494868EC
:103EC00028B1401E486001D180F31188704772B656
:103ED000502080F31188BFF34F8FBFF36F8F62B60E
:103EE000FEE700006800002470B500282ED0A0F185
:103EF00008046068002809DB72B6502080F311883E
:103F0000BFF34F8FBFF36F8F62B6FEE7216849B1F1
:103F100072B6502080F31188BFF34F8FBFF36F8FBD
:103F200062B6FEE720F00040606000F07DF9084DC9
:103F300060686968084468602046FFF7BDFC28692E
:103F4000401C2861BDE8704000F016BD70BD000047
:103F5000740000244FF0E020002101614FF47A72D8
:103F60008161072303490968B1FBF2F1491E4161F0
:103F7000036170470C00002470B54FF0000258B187
:103F800000291FD0104C002304EBC3056E68864245
:103F90000CD104EBC30211E072B6502080F31188FB
:103FA000BFF34F8FBFF36F8F62B6FEE71AB954F8B5
:103FB000336006B92A465B1C082BE5D3002A01D0E2
:103FC000C2E9001070BD00000802002470B515465B
:103FD0000E460446FFF74EFF94F944100020491C9A
:103FE00001D184F8440094F94510491C01D184F8AA
:103FF0004500FFF763FFA06B28B904F124002A46AF
:10400000314600F0A1F82046BDE87040FFF7E6BD5C
:10401000020010B516D01048406B48B172B650205F
:1040200080F31188BFF34F8FBFF36F8F62B6FEE747
:1040300000F0FAF800211046FFF772FA00F09CFC3D
:10404000002807D105494FF080500860BFF34F8F1B
:10405000BFF36F8F10BD00001400002404ED00E0DA
:1040600070B50546FFF706FF204C05B92568281DE9
:10407000FFF78EFEA86A18B105F11800FFF788FE59
:10408000606A401C60622068854207D11848291D7B
:10409000FFF7E4FE6068401C606004E0A068401E1A
:1040A000A060FFF73FFDFFF709FF2068854202D0BF
:1040B0002846FFF728FB6069002816D02068854253
:1040C00013D1606B48B172B6502080F31188BFF3F2
:1040D0004F8FBFF36F8F62B6FEE706494FF08050F7
:1040E0000860BFF34F8FBFF36F8F70BD14000024C3
:1040F000E406002404ED00E002490A6A0260C9688F
:10410000416070471400002401490120C8617047D4
:104110001400002410B50C4650B10A490968183142
:10412000FFF784FE2046BDE810400121FFF7F8B9F3
:1041300072B6502080F31188BFF34F8FBFF36F8F9B
:1041400062B6FEE714000024F0B40C46D0B1124968
:104150000D684368EB619D680E6835620D689E6866
:10416000183575600D6818359D60096888620168AA
:10417000491C01600AB14FF0FF3411462046F0BCE3
:10418000FFF7CEB972B6502080F31188BFF34F8F7E
:10419000BFF36F8F62B6FEE71400002430B587B01E
:1041A000002405AA04A9039403A80494FFF704FEBD
:1041B000DDE9030100940023CDE90110184816A1A0
:1041C000059A00F07DFA174DE862B8B100F076FC70
:1041D000012802D0401C14D010E0502072B680F3A9
:1041E0001188BFF34F8FBFF36F8F62B601204FF07E
:1041F000FF31A9626861EC6000F066F8286B07B0D7
:1042000030BD72B6502080F31188BFF34F8FBFF3DB
:104210006F8F62B6FEE7000049444C450000000085
:1042200089370008140000240248416B491C41638F
:10423000704700001400002410B5214C606B10B1D1
:104240000120E06110BD0020E06120684FF0A53141
:10425000006B02688A4208D142688A4205D18268AE
:104260008A4202D1C068884204D021682068343173
:10427000FFF7C4FD1349206901E0B8B1401E00EB0F
:10428000800251F82220002AF7D000EB800201EBD7
:10429000820101F108034A6852684A609A4201D1DA
:1042A00052684A60D1682160206110BD72B650200A
:1042B00080F31188BFF34F8FBFF36F8F62B6FEE7B5
:1042C00014000024480200242B49FF201CB50A7862
:1042D0000192087008788DF800009DF800209DF884
:1042E000000002F0F002824209D072B6502080F342
:1042F0001188BFF34F8FBFF36F8F62B6FEE79DF853
:10430000002007201D4C02F050022270A06005E042
:104310009DF8002052008DF80020401E9DF80020DE
:104320001206F5D40328A06009D072B6502080F39D
:104330001188BFF34F8FBFF36F8F62B6FEE74FF464
:104340004070A060019808700D48016841F4700148
:104350000160016841F070410160FFF7FBFD002042
:104360006060FBF7C7FF0748016841F0404101600A
:10437000FBF7ACFF00201CBD00E400E06800002457
:1043800020ED00E034EF00E0F8B5069D1BB168B108
:104390005AB1A9B90AE072B6502080F31188BFF370
:1043A0004F8FBFF36F8F62B6FEE749B172B65020F0
:1043B00080F31188BFF34F8FBFF36F8F62B6FEE7B4
:1043C00050241C46012683F8466000932B46FFF7D5
:1043D0000BFA2046F8BD00002DE9F05F04008A4684
:1043E0004FF0010B32D0E06B78B34FF0FF39226C05
:1043F000B9FBF0F0904244D3FFF73CFD2168002563
:10440000D4E90F23D4F840C004F1100810460E463A
:10441000401EA56302FB031200FB0C10BAF1000F53
:10442000666084F8449084F84590C4E9022017D06F
:104430004046FFF7EDFC04F12400FFF7E9FC00BF64
:10444000FFF73CFD5846BDE8F09F1AE072B65020D9
:1044500080F31188BFF34F8FBFF36F8F62B6FEE713
:1044600020690028ECD0404600F016FA0028E7D07A
:1044700009494FF080500860BFF34F8FBFF36F8F33
:10448000DEE772B6502080F31188BFF34F8FBFF381
:104490006F8F62B6FEE7000004ED00E02DE9F747FC
:1044A00004008A4683B04FF0000603D0BAF1000F33
:1044B0000AD015E072B6502080F31188BFF34F8FF9
:1044C000BFF36F8F62B6FEE7206C48B172B6502022
:1044D00080F31188BFF34F8FBFF36F8F62B6FEE793
:1044E00000F02CF9DFF8F8804FF080574FF000090A
:1044F00058B9059848B172B6502080F31188BFF3BF
:104500004F8FBFF36F8F62B6FEE7FFF7B3FCA56B6B
:10451000C5B151462046FFF7E3F86D1EA56320693B
:1045200050B104F1100000F0B7F928B1C8F80070DC
:10453000BFF34F8FBFF36F8FFFF7C0FC012006B0B2
:10454000BDE8F087059808B11EB106E0FFF7B6FC9C
:1045500027E06846FFF7D0FD0126FFF7AFFCFFF725
:1045600063FEFFF787FC94F94400401C01D184F8F6
:10457000449094F94500401C01D184F84590FFF720
:104580009DFC05A9684600F02DF8002820460AD0B9
:10459000FFF724FB00F0F0F92046FFF7D1F90028DF
:1045A000B3D00020CBE7FFF7CBF990B1059904F128
:1045B0002400FFF7AFFD2046FFF710FB00F0DCF909
:1045C0000028A2D1C8F80070BFF34F8FBFF36F8FE0
:1045D0009BE72046FFF702FB00F0CEF995E70000CD
:1045E00004ED00E02DE9F04105000C461BD024B39A
:1045F000FFF740FC194E2068F268471C6B68A2EB7D
:1046000003010ED02F68D6F820C00026674501D0E0
:1046100093421CD988421AD9401A20602846FFF7D5
:104620006BFD002515E072B6502080F31188BFF3B2
:104630004F8FBFF36F8F62B6FEE772B6502080F3E4
:104640001188BFF34F8FBFF36F8F62B6FEE701256E
:104650002660FFF733FC2846BDE8F08114000024F3
:104660002DE9FF5F994616468A4683469000DDE9AC
:104670000E87FFF7E9FA05001FD05C20FFF7E4FA88
:10468000040017D05C21FBF7CFFE0020256384F8DF
:1046900059004B46CDE90087CDE9024032465146EC
:1046A0005846FFF7B2F82046FEF776FF012004B027
:1046B000BDE8F09F2846FFF717FC4FF0FF30F6E704
:1046C0002DE9F04786B01F46904689468246DDE9CF
:1046D0000F540E9EEDB134B35C200090014620468D
:1046E000FBF7A2FE2563022084F85900002104AAEA
:1046F000009603913B46CDE9012442464946504687
:10470000FFF783F82046FEF747FF049806B0BDE8A0
:10471000F08772B6502080F31188BFF34F8FBFF33C
:104720006F8F62B6FEE772B6502080F31188BFF338
:104730004F8FBFF36F8F62B6FEE7000005484169F7
:1047400019B1406B18B1002070470120704702205A
:1047500070470000140000240148C0687047000042
:10476000140000242DE9F047494C606B002628B165
:10477000A069401CA0613046BDE8F087E5686D1C6B
:10478000E56015D1A06B006848B172B6502080F387
:104790001188BFF34F8FBFF36F8F62B6FEE7A06B38
:1047A000E16BA163E063206A401C2062FFF7BAF965
:1047B0003848A16A8D420FD34FF00009A16B0968F8
:1047C00039B1A16BC968C9684A68954212D2A26220
:1047D00002E04FF0FF31A1622168C96A01EB81015B
:1047E00050F82100012800D90126E0690028C2D034
:1047F0000126C0E7D1E902734A6901F10408BB60F0
:10480000D1E902377B605368434501D1CB685360DF
:10481000C1F8149013685B1E13608A6A9AB1D1E9DB
:10482000077C01F11803C7F808C0D1E9077CCCF870
:10483000047057689F4201D10B6A5360C1F82890F9
:1048400013685B1E1360CA6A23699A4200D9226109
:1048500002EB820200EB820252688A609368CB60AE
:104860009368C3F80480C2F80880CA6A02EB820227
:1048700000EB82034B6150F822305B1C40F8223081
:104880002268C96AD26A914298D9012696E7000047
:10489000140000244802002430B5C068C06850B33A
:1048A000D0E90732816A9A60D0E907235A6000F1A3
:1048B00018034A689A4201D1026A4A60002484625D
:1048C0000A68521E0A6029494A6BF2B1284C626894
:1048D000C2619568056295686B6093608462226826
:1048E000521C2260C06A0A68D26A90423BD90122F7
:1048F000CA61104630BD72B6502080F31188BFF3F4
:104900004F8FBFF36F8F62B6FEE7D0E90253426963
:10491000AB60D0E902356B60031D55689D4201D143
:10492000C568556044611468641E1460C26A0C69ED
:10493000A24200D90A6102EB82020E4C04EB820211
:10494000526882609568C56095686B609360C26AC2
:1049500002EB820204EB8203436154F822305B1CB9
:1049600044F82230BEE7002030BD000014000024CF
:10497000D0060024480200242DE9F047DFF82C81FE
:10498000D8F834000024254650B1FFF773FAD8F860
:104990003400401EC8F83400D8F8340050B180E02C
:1049A00072B6502080F31188BFF34F8FBFF36F8F23
:1049B00062B6FEE73E480126D8F808104FF000091D
:1049C000F1BB6EE0C168CC68D4E90732A16A9A6095
:1049D000D4E907235A6004F118024B68934201D1CD
:1049E000226A4A604A46C4F828900B685B1E0B6036
:1049F000D4E9027C6169231DC7F808C0D4E9027CB0
:104A0000CCF804704F689F4201D1E7684F60626143
:104A10000A68521E0A60E16AD8F81020914201D952
:104A2000C8F8101001EB8101224A02EB81014968AC
:104A3000A1608F68E7608F687B608B60E16A00E04F
:104A400011E001EB810102EB8103636152F8213037
:104A50005B1C42F82130D8F80020E16AD26A91420A
:104A600001D3C8F81C6001680029ABD10CB1FFF775
:104A700059F8D8F8184044B1FFF774FE08B1C8F8E7
:104A80001C60641EF8D1C8F81890D8F81C0040B11A
:104A9000094901254FF080500860BFF34F8FBFF3E5
:104AA0006F8FFFF70BFA2846BDE8F087140000244B
:104AB000D00600244802002404ED00E010B586B0C2
:104AC000FEF7E2FD124C2068B8B10020039005AA61
:104AD000049004A903A8FFF77BF9DDE90321022074
:104AE00000238DE807000D480AA1059AFFF7E8FDAD
:104AF000606010B106B0012010BD72B6502080F386
:104B00001188BFF34F8FBFF36F8F62B6FEE70000CF
:104B100054000024546D722053766300B93B0008A2
:104B2000010002000400060008000A000C0010004A
:104B30002000400080000001010101030701000086
:104B4000080402040801010100000000010203043E
:104B50000102030406070809784B0008000000243E
:104B6000A0000000FE330008184C0008A00000243C
:104B7000405400000E340008010000001000000046
:104B8000000000000090D0030090D003000000005F
:104B90000000000000000000000000000000000015
:104BA0000000000000000000000000000000000005
:104BB00000000000000000000000000037000000BE
:104BC00000000000000000000000000000000000E5
:104BD00000000000000000000000000000000000D5
:104BE00000000000AAAAAAAA00000000000000001D
:104BF00000000000000000000000000000000000B5
:104C000000000000000000000000000000000000A4
:084C100000000000000000009C
:040000050800029954
:00000001FF
